:020000040800F2
:023FF000FFFFD1
:020000040800F2
:1000000040400020CD060008A5040008A704000811
:10001000AB040008AF040008B304000800000000AF
:10002000000000000000000000000000B70400080D
:10003000B904000800000000BB040008EF06000837
:10004000F1060008F1060008F1060008F1060008B4
:10005000F1060008F1060008F1060008F1060008A4
:10006000F1060008F1060008F1060008F106000894
:10007000F1060008F1060008F1060008F106000884
:10008000F1060008F1060008F1060008F106000874
:10009000F1060008F1060008F1060008F106000864
:1000A000F1060008F1060008F1060008F106000854
:1000B000F1060008F1060008F1060008F106000844
:1000C000F1060008F1060008F1060008F106000834
:1000D000F1060008F1060008F1060008F106000824
:1000E000F1060008F1060008F1060008F106000814
:1000F000F1060008F1060008F1060008F106000804
:10010000F1060008F1060008F1060008F1060008F3
:10011000F1060008F1060008F1060008F1060008E3
:10012000F1060008F1060008F1060008F1060008D3
:10013000F1060008F1060008F1060008F1060008C3
:10014000F1060008F1060008F1060008F1060008B3
:10015000F1060008F1060008F1060008F1060008A3
:10016000F1060008F1060008F1060008F106000893
:10017000F1060008F1060008F1060008F106000883
:10018000F1060008F1060008DFF80CD001F080F954
:10019000004800473F02000840400020A448A5490D
:1001A000086000BFFEE710B500F05AFBA24800F05F
:1001B00077FD0221282000F09FFB0221302000F073
:1001C0009BFB9E4C0BE04FF420200059401C05D0B7
:1001D0004FF420200159204600F038FC241D984897
:1001E0008442F0D300F049FB10BD024610680B6852
:1001F000984201D00120704750684B68984201D066
:100200000120F8E70020F6E7F0B504460D46134656
:1002100000200021224602E017783944521CAA42ED
:10022000FAD989B2874F39601A46177892F801C017
:1002300007EB0C27BEB2B14200D00120F0BD012176
:100240000F2000F0E7FF00207F4908607F49C1F8D8
:100250008C027F4908607F4908607F4908607F49B8
:1002600008607F4908607F4908607F4908607F49CE
:1002700008607F4908607549C1F89C027D4800F01C
:10028000CBFD01207B490871002088714871C8713D
:100290004FF4C8500860784800F076FD754800F0CB
:1002A000BBFD012073490871002088714871C87135
:1002B0004FF4FE700860714800F066FD6D4800F074
:1002C000ABFD01206B49087100208871C87148712D
:1002D000402008606A4800F057FD664800F09CFD29
:1002E000012064490871002088714871C8714FF479
:1002F000C0600860634800F047FD634950481F38FC
:10030000FFF773FF70B1604A1032511E5F48FFF76C
:100310007BFF5F4908600846006818B9FFF743FF94
:10032000FFF73CFF464A0F3A511E4448FFF76CFF67
:100330005749086008460068A0B9404840685549D8
:10034000086008460068544908603C49086880F322
:10035000088800BF4FF40031880200F00CFA4E48C4
:100360000068804700BF01203B4908603749C1F859
:1003700090024FF000003A4908603A4908603A4953
:1003800008603249C1F8A002044609E0204604EBA7
:10039000D0714910A4EB4101404A116004F10104FD
:1003A0003F488442F2DB00202B4908602749C1F80E
:1003B00090024FF001002A4908602A4908604FF076
:1003C0000000294908602149C1F8A002044609E05B
:1003D000204604EBD0714910A4EB41012F4A116073
:1003E00004F101042E488442F2DB00201A4908601F
:1003F0001649C1F890021A4908601A4908604FF07E
:100400000100194908601149C1F8A0024FF0000429
:1004100009E0204604EBD0714910A4EB41011F4ACA
:10042000116004F101041E4884429CDAF1E70000E7
:100430000400FA050CED00E0F100010000000208E4
:10044000FFFF0508080000208882404200804042EB
:10045000AC02404294824042A0024042908240421C
:10046000B002404298824042A8824142A08240426B
:10047000A48241420000002000000240000402402B
:1004800000080240000C0240E0FF0F0800000C08CA
:100490000C000020140000201000002098024142AF
:1004A00080969800704700BFFEE700BFFEE700BFE0
:1004B000FEE700BFFEE77047704770470CB50020AD
:1004C000019000907548006840F4803073490860DE
:1004D00000BF7248006800F4003000900198401C92
:1004E0000190009818B90198B0F5A06FF1D16B4850
:1004F000006810F4003F02D00120009001E00020CD
:1005000000900098012845D164484030006840F0D0
:1005100080506249403108606148006840F4804082
:100520005F4908605D48083000685C490831086030
:100530000846006840F4004008600846006840F43F
:10054000A05008605748091F0860081F006840F065
:100550008070091F086000BF5048006810F0007FDD
:10056000FAD040F20560504908604C4808300068F5
:1005700020F003004949083108600846006840F04F
:100580000200086000BF45480830006800F00C0019
:100590000828F8D10CBD10B5002400E0641C4348C5
:1005A0008442FBDB3D48006840F001003B490860A5
:1005B00000203A4908310860384800683C49084042
:1005C000364908603B48091D0860081F006820F490
:1005D0008020091F0860002030490C310860FFF7B7
:1005E0006DFF4FF000603449086010BD70B5002009
:1005F0000022022300240221284D08352D6805F031
:100600000C0020B1042806D0082834D107E02B4D77
:100610002B4E356033E02B4D294E35602FE01F4DBA
:100620002D1D2D68C5F380541C4D2D1D2D6805F022
:100630003F0154B1234DB5FBF1F5184E361D366818
:10064000C6F3881605FB06F209E01C4DB5FBF1F573
:10065000124E361D3668C6F3881605FB06F20F4D9E
:100660002D1D2D68C5F301456D1C6B00B2FBF3F524
:10067000134E356003E0114D114E356000BF00BFD1
:10068000064D08352D68C5F303150F4E705D0C4DF2
:100690002D68C5400A4E356070BD0000003802402C
:1006A0000070004008544007003C024040420F00E8
:1006B000FFFFF6FE1030002408ED00E00024F400F7
:1006C0001800002000127A001C0000200948016870
:1006D00041F4700101600848804708480047FEE780
:1006E000FEE7FEE7FEE7FEE7FEE7FEE7FEE7FEE7E2
:1006F000FEE7000088ED00E097050008890100088A
:1007000033490143334A1160704770B5002100231B
:100710000F22C47824B32F4C246804F4E064C4F599
:10072000E064C4F30721C1F10404E3B20A41447850
:100730009C40E1B28478144021430C07210E264CE2
:1007400005786155047804F01F050124AC40057854
:100750006D114FF0E02606EB8505C5F8004109E074
:10076000047804F01F040125A5401C4C067876117E
:1007700044F8265070BD1A4A0A400243154B1B1F0D
:100780001A60704739B1134A121D12680243114BA7
:100790001B1D1A6006E00F4A121D126882430D4BA2
:1007A0001B1D1A607047042808D14FF0E021096929
:1007B00041F004014FF0E022116107E04FF0E02129
:1007C000096921F004014FF0E02211617047000037
:1007D0000000FA050CED00E000E400E080E100E03C
:1007E00080FFFF1FFE4A1070704730B1FC49096856
:1007F00041F48071FA4A116005E0F949096821F471
:100800008071F74A1160704730B1F549096841F4C9
:100810000071F34A116005E0F149096821F40071A3
:10082000EF4A1160704730B1ED49096841F48061C9
:10083000EB4A116005E0EA49096821F48061E84A61
:1008400011607047E648006840F40060E4490860C1
:100850007047E348006840F48050E1490860704701
:10086000DF481030006810F0004F05D0DD48DC494B
:10087000091D0860DC4808607047D94810300068DE
:1008800040F00040D6491031086070470820D44934
:100890000C31096801F48031B1F5803F01D10120AC
:1008A00018E0CF490C31096811F0100F01D0052074
:1008B00010E0CB490C31096811F0EF0F01D0062090
:1008C00008E0C7490C31096811F0020F01D0072078
:1008D00000E00820704708B508200090FFF7D6FF19
:1008E000009002E0FFF7D2FF00909DF80000012881
:1008F000F8D09DF8000008BD70B504460A460026F1
:10090000082502B909E0012A01D1160205E0022AF0
:1009100001D1160201E04FF44076FFF7DCFF0546F7
:10092000082D2DD1AE481030006820F44070AC493D
:1009300010310860084600683043086008460068C7
:1009400020F0F80008600846006844F002010843FF
:10095000A349103108600846006840F48030086000
:10096000FFF7B9FF05469E481030006820F00200EE
:100970009B49103108600846006820F0F8000860C4
:10098000284670BD30B5024600250824FFF7A3FFB6
:10099000044602B909E0012A01D1150205E0022A44
:1009A00001D1150201E04FF44075082C20D18C488C
:1009B0001030006820F44070894910310860084602
:1009C0000068284308600846006840F0040008609A
:1009D0000846006840F480300860FFF77CFF04465A
:1009E0007F481030006820F004007D491031086015
:1009F000204630BD70B5064614461D464FF008022D
:100A0000FFF769FF0246082A1ED1754810300068BA
:100A100020F440707249103108600846006840F4C4
:100A2000407008600846006840F0010008603460CB
:100A30007560FFF750FF024669481030006820F0EB
:100A40000100674910310860104670BD30B502469C
:100A50000C460825FFF73FFF0546082D1DD16048CD
:100A60001030006820F440705D491031086008467D
:100A7000006840F4007008600846006840F001001B
:100A800008601460FFF727FF0546554810300068DE
:100A900020F00100524910310860284630BD30B5C1
:100AA00002460C460825FFF716FF0546082D1DD106
:100AB0004B481030006820F44070494910310860FC
:100AC0000846006840F4807008600846006840F0FE
:100AD000010008601480FFF7FEFE05464048103014
:100AE000006820F001003E4910310860284630BD02
:100AF00030B502460C460825FFF7EDFE0546082DE9
:100B00001BD137481030006820F440703449103150
:100B100008600846006808600846006840F0010068
:100B200008601470FFF7D7FE05462D4810300068A6
:100B300020F001002A4910310860284630BD2848BD
:100B40001430006810F0010F05D0284824490831FE
:100B5000086027480860704721481430006840F05A
:100B600001001F4914310860704730B502460C4639
:100B70000825FFF7B0FE0546082D10D13CB11848F6
:100B800016300088904316491631088007E0144853
:100B90001630008891B2084311491631088030BDE3
:100BA00010B502460824FFF796FE0446082C02D131
:100BB0000B481530027010BDF0B504460D46FF26F7
:100BC0000827FFF788FE0746082F16D1044814307F
:100BD000007800F00F0645EA06001043204309E0C4
:100BE000003C024023016745AB89EFCD3B2A190841
:100BF0007F6E5D4C2C4914310870F0BD2A491431C8
:100C0000097821F00C01284A143211701146097834
:100C100001431170704700B5082223481430007852
:100C200040F00200204914310870FFF754FE0246DC
:100C3000104600BD1C4814300068C0F347107047D0
:100C40001948163000887047002017491531097877
:100C5000AA2901D0012000E000207047124814307A
:100C6000007800F00C00704739B10F4A103212685A
:100C700002430D4B10331A6006E00B4A1032126823
:100C80008243094B10331A60704701460020064A20
:100C90000C3212680A4201D0012000E000207047A7
:100CA00001490C3108607047003C024010B5044611
:100CB0008C48844208D10121084600F000FB002145
:100CC000012000F0FCFA5EE08748844208D101214F
:100CD000022000F0F4FA0021022000F0F0FA52E0C5
:100CE0008248844208D10121042000F0E8FA002162
:100CF000042000F0E4FA46E07D48844208D1012156
:100D0000082000F0DCFA0021082000F0D8FA3AE0D0
:100D10007848844208D10121102000F0D0FA002147
:100D2000102000F0CCFA2EE07348844208D1012153
:100D3000202000F0C4FA0021202000F0C0FA22E0B8
:100D40006E48844208D10121402000F0B8FA002109
:100D5000402000F0B4FA16E06948844208D101212D
:100D6000802000F0ACFA0021802000F0A8FA0AE010
:100D70006448844207D10121801500F0A0FA0021C7
:100D8000A01500F09CFA10BDF0B50A460021002322
:100D9000002400BF3DE0012505FA01F3156805EACE
:100DA00003049C4234D105684F000326BE40B5437E
:100DB000056015794E00B540066835430560157924
:100DC000012D02D01579022D16D185684F0003261A
:100DD000BE40B543856055794E00B54086683543C1
:100DE0008560456801268E40B54345604568967923
:100DF0008E40B6B235434560C5684F000326BE40FD
:100E0000B543C560D5794E00B540C6683543C56069
:100E1000491C1029BFD3F0BD4FF6FF7101600021BE
:100E2000017141718171C171704708B54FF4803211
:100E30000092009A0A430092009AC261C161009A2E
:100E4000C261C2690092C269009208BD02460020D8
:100E500013690B4201D0012000E0002070470146D9
:100E6000086980B270470246002053690B4201D0E6
:100E7000012000E0002070470146486980B27047B9
:100E800001837047418370470AB1018300E04183C9
:100E900070474161704742694A4042617047F0B50E
:100EA000002300244D07ED0E02FA05F3CE1000F1E9
:100EB000200555F826504E07F70E0F26BE40B543C5
:100EC000CF1000F1200646F82750CE1000F1200583
:100ED00055F8265045EA0304CE1000F1200545F8E8
:100EE0002640F0BD0000024000040240000802401D
:100EF000000C0240001002400014024000180240A2
:100F0000001C024000200240FA48006840F0010046
:100F1000F84908600020F74908310860F548006882
:100F2000F5490840F3490860F448091D0860081FA6
:100F3000006820F48020091F08600020ED490C3172
:100F4000086070470021EB4A921C1170114608702E
:100F5000704710B501460022002300204A11012AE3
:100F600002D1E44C236808E0022A03D1E14C70343A
:100F7000236802E0DF4C7434236801F01F0201246F
:100F800094401C4201D0012000E0002010BD38B583
:100F9000002000900024002500BF3120FFF7D9FF7A
:100FA00005460098401C00900098B0F5A06F01D055
:100FB000002DF2D03120FFF7CCFF08B1012400E072
:100FC0000024204638BD01460020CA4A106820F09F
:100FD000F80040EAC10010607047C94908607047D6
:100FE0000021C44A703211701170012802D0042807
:100FF0000AD104E00121BF4A7032117005E00521D9
:10100000BC4A7032117000E000BF00BF7047BD499C
:101010000860704770B5049C41EA82150126C6EB52
:10102000530645EA0645054345EA0465B14E361DBB
:10103000356070BDB24908667047820142EA0172AC
:10104000AC4B84331A607047AD4988667047AC4931
:10105000C864704702460020A64B0833186820F089
:10106000EC6042EA01031843A24B08331860704752
:10107000024600209F4B0833186820F0784042EA6F
:10108000010318439B4B083318607047014600204A
:10109000984A0832106820F0030008431060704737
:1010A00094480830006800F00C00704701460020AA
:1010B000904A0832106820F0F00008431060704732
:1010C000014600208B4A0832106820F4E0500843A3
:1010D0001060704701460020864A0832106820F4EC
:1010E000604040EAC10010607047F0B50021002266
:1010F00000240225002602237E4F08373F6807F0B0
:101100000C0121B1042905D0082937D105E07E4F13
:10111000076036E07D4F076033E0764F3F1D3F6844
:10112000C7F38056734F3F1D3F6807F03F036EB112
:10113000764FB7FBF3F7DFF8BCC10CF1040CDCF819
:1011400000C0CCF3881C07FB0CF40CE06E4FB7FB1F
:10115000F3F7DFF8A0C10CF1040CDCF800C0CCF30D
:10116000881C07FB0CF4634F3F1D3F68C7F3014722
:101170007F1C7D00B4FBF5F7076002E0624F07605B
:1011800000BF00BF5B4F08373F6807F0F001090957
:101190005F4F7A5C0768D7404760564F08373F6813
:1011A00007F4E051890A5A4F7A5C4768D740876054
:1011B000504F08373F6807F46041490B544F7A5C41
:1011C0004768D740C760F0BD002100F44072B2F517
:1011D000407F0AD1474A0832116821F4F8114D4A7C
:1011E00002401143434A08321160424A7032126889
:1011F000C0F30B031A433F4B70331A6070474149E9
:101200004439086070473F49403908607047424997
:101210000860704739B1374A303212680243354BA3
:1012200030331A6006E0334A303212688243314B61
:1012300030331A60704739B12E4A34321268024393
:101240002C4B34331A6006E02A4A34321268824347
:10125000284B34331A60704739B1264A3832126845
:101260000243244B38331A6006E0224A38321268AF
:101270008243204B38331A60704739B11D4A4032DF
:10128000126802431B4B40331A6006E0194A403291
:1012900012688243174B40331A60704739B1154AC0
:1012A000443212680243134B44331A6006E0114A79
:1012B0004432126882430F4B44331A60704739B18D
:1012C0000C4A1032126802430A4B10331A6006E0CF
:1012D000084A103212688243064B10331A60704776
:1012E000E1B1044A143212680243024B14331A600B
:1012F00019E0000000380240FFFFF6FE1030002425
:1013000000004742800E47420024F40000127A0099
:101310002C000020FFFCFF0F5C0147425B4A126873
:1013200082435A4B1A60704739B1584A121D1268ED
:101330000243564B1B1D1A6006E0544A121D1268E8
:101340008243524B1B1D1A60704739B14F4A0C3211
:10135000126802434D4B0C331A6006E04B4A0C32C4
:1013600012688243494B0C331A60704739B1474ABF
:10137000103212680243454B10331A6006E0434AAC
:10138000103212688243414B10331A60704739B1F2
:101390003E4A3C32126802433C4B3C331A6006E042
:1013A0003A4A3C3212688243384B3C331A607047E9
:1013B00039B1364A403212680243344B40331A6026
:1013C00006E0324A403212688243304B40331A60A2
:1013D000704739B12D4A4432126802432B4B4433D3
:1013E0001A6006E0294A443212688243274B44338C
:1013F0001A60704739B1254A4C3212680243234BB8
:101400004C331A6006E0214A4C32126882431F4B6B
:101410004C331A60704739B11C4A5032126802438B
:101420001A4B50331A6006E0184A50321268824351
:10143000164B50331A60704739B1144AD21F1278D4
:101440000243124BDB1F1A7006E0104AD21F1278BB
:1014500082430E4BDB1F1A7070470C4860300068E7
:1014600040F08070094960310860704701460020F3
:10147000064A083A12680A4201D0012000E0002022
:1014800070470249891F08707047000014380240F5
:10149000064C074D06E0E06840F0010394E80700C1
:1014A00098471034AC42F6D3FEF772FED41400080D
:1014B000F414000802E008C8121F08C1002AFAD17B
:1014C00070477047002001E001C1121F002AFBD1C4
:1014D0007047FFFFF4140008000000203C000000EB
:1014E000B4140008301500083C000020044000003F
:1014F000C41400080000000000000000000000000C
:10150000000000000000000000000000007A030A54
:1015100000000000000000000102030406070809A3
:101520000000000001020304010203040607080989
:020000040800F2
:0C3FE0004B4950413130314200000000DC
:020000040800F2
:043FF0002A47FFFF5E
:020000040800F2
:04180000FFFFFFFFE8
:04200000FFFFFFFFE0
:04280000FFFFFFFFD8
:04300000FFFFFFFFD0
:020000040805ED
:02FFF000FFFF11
:020000040802F0
:1000000070F601200504020817040208951702087B
:100010001B0402081D0402081F040208000000005F
:10002000000000000000000000000000290302089A
:1000300023040208000000006D030208771705087A
:1000400029040208290402082904020829040208D4
:1000500029040208290402082904020829040208C4
:1000600029040208290402082904020829040208B4
:1000700029040208290402082904020829040208A4
:100080002904020829040208290402082904020894
:100090002904020829040208290402082904020884
:1000A000DBB6020829040208290402089923020881
:1000B0006126020829040208193E020829040208E0
:1000C0002904020829040208290402082904020854
:1000D00029040208DBA6020807D70408290402083D
:1000E0002904020829040208290402082904020834
:1000F0002904020829040208290402082904020824
:100100002904020829040208AB2202082904020873
:10011000214602082904020813580208851803081A
:1001200029040208290402082904020829040208F3
:1001300029040208290402082904020829040208E3
:1001400029040208290402082904020829040208D3
:1001500029040208290402082904020829040208C3
:1001600029040208290402082904020829040208B3
:1001700029040208290402082904020829040208A3
:10018000290402082904020800F002F800F0BCF873
:100190000AA090E8000C82448344AAF10107DA45E2
:1001A00001D100F0B1F8AFF2090EBAE80F0013F078
:1001B000010F18BFFB1A43F00103184780D7030053
:1001C000A0D7030010F8013B0A4413F0030408BF52
:1001D00010F8014B1D1108BF10F8015B641E05D01B
:1001E00010F8016B641E01F8016BF9D1002D15D0D8
:1001F00010F8014B03F00C030C2BA1EB04040ABF15
:1002000010F8013BA4EB8314A4EB032405F10103D4
:1002100014F8016B5B1E01F8016BF9D5914238BFF0
:1002200010F8013BD1D3704700230024002500269D
:10023000103A28BF78C1FBD8520728BF30C148BF49
:100240000B6070476E2935F0F886702935F0128200
:10025000662938F01C84652938F01984672938F03C
:1002600016846129AFF3008003681B0A28BF41F0A0
:100270008001692935F08081642935F07D817529F7
:1002800035F07A816F2936F0F981782935F0DE81F1
:10029000E92936F09181E42936F08E81F52936F08E
:1002A0008B81EF2936F0F681F82935F0DD8103687E
:1002B000DB0928BF41F08001632936F012817329E0
:1002C00036F01781E32936F02183F32936F02683AF
:1002D000002070471FB538F0D0FB9DE8030035F0D3
:1002E000FDFD35F0EEFB35F0D9FD040000200021C6
:1002F00037F0F2FC401C60600020002137F002FD66
:10030000E0601FBD10B510BD36F0AEFD1146FFF721
:10031000E1FF00F04EFB36F0CCFD03B4FFF7F2FF37
:1003200003BC36F0F9FDFFFF234B19680868B0E8FD
:10033000F04F80F309884FF0000080F31188704778
:100340000000000003480068006880F3088862B677
:1003500000DF00BF08ED00E0DFF80C00016841F4A9
:1003600070010160704700BF88ED00E0EFF3098085
:10037000114B1A681EF0100F08BF20ED108A20E9FB
:10038000F04F106008B54FF0BF0080F3118830F0D7
:10039000BAFE4FF0000080F31188BDE808401968EC
:1003A0000868B0E8F04F1EF0100F08BFB0EC108ADC
:1003B00080F30988704700BF3C2B0020EFF31180C9
:1003C0004FF0BF0181F31188704780F311887047A7
:1003D0000B49D1F800C04A685CF8043B1068184427
:1003E00042F8040B8C4528BFA1F1DC0C8A4228BFDF
:1003F000A1F1DC02C1F800C04A6020F00040704763
:1004000004B600200C48016841F4700101600B48FB
:1004100080470B480047FEE7FEE7FEE7FEE7FEE702
:10042000FEE7FEE7FEE7FEE7FEE7000005480649B7
:10043000064A074B7047000088ED00E02F050208D0
:100440008901020870B6002070F6012070B6012004
:1004500070B601200CB50020019000907248006831
:1004600040F480307049086000BF6F48006800F4B5
:10047000003000900198401C0190009818B9019834
:10048000B0F5C06FF1D16848006810F4003F02D0A9
:100490000120009001E0002000900098012845D143
:1004A00061484030006840F080505F49403108604A
:1004B0005E48006840F440405C4908605A48083093
:1004C00000685949083108600846006840F4004057
:1004D00008600846006840F4A05008605448091FAE
:1004E0000860081F006840F08070091F086000BFA6
:1004F0004D48006810F0007FFAD040F205604D4989
:10050000086049480830006820F003004649083177
:1005100008600846006840F00200086000BF4248DA
:100520000830006800F00C000828F8D10CBD10B5A8
:100530003D48006840F001003B49086000203A490E
:1005400008310860384800683B490840364908606F
:100550003A48091D0860081F006820F48020091F20
:100560000860002030490C310860FFF773FF4FF03E
:1005700000603349086010BD70B5002000220223DE
:1005800000240221284D08352D6805F00C0020B10B
:10059000042806D0082834D107E02A4D2A4E3560B9
:1005A00033E02A4D284E35602FE01F4D2D1D2D685C
:1005B000C5F380541C4D2D1D2D6805F03F0154B12D
:1005C000224DB5FBF1F5184E361D3668C6F3881678
:1005D00005FB06F209E01B4DB5FBF1F5124E361D89
:1005E0003668C6F3881605FB06F20F4D2D1D2D68E3
:1005F000C5F301456D1C6B00B2FBF3F5124E35607F
:1006000003E0104D104E356000BF00BF064D0835A9
:100610002D68C5F303150E4E705D0B4D2D68C5405A
:10062000094E356070BD0000003802400070004087
:1006300008544007003C0240FFFFF6FE1030002443
:1006400008ED00E00024F4000020002000127A00F1
:100650000420002038B5FC48007808B9FF2038BDD8
:10066000002031F046F9F94908600846006808B9E9
:100670000120F4E7002031F03CF9F5490860084614
:10068000006808B90220EAE7002031F032F9F149A8
:1006900008600846006808B90320E0E70121084621
:1006A00031F05CF9EC4908600846006808B90A2096
:1006B000D5E72921012031F051F9E84908600846C1
:1006C000006808B90B20CAE72921012031F046F95A
:1006D000E34908600846006808B90C20BFE72921F3
:1006E000012031F03BF9DF4908600846006808B98D
:1006F0000D20B4E70121084631F030F9DA490860ED
:100700000846006808B90E20A9E74421012031F00D
:1007100025F9D64908600846006808B90F209EE709
:100720001621012031F01AF9D14908600846006805
:1007300008B9152093E71621012031F00FF9CD49B2
:1007400008600846006808B9162088E7BE4909789D
:100750004800162131F002F9C749086008460068D0
:1007600008B917207BE74E21012031F0F7F8C34983
:1007700008600846006808B9182070E74E2101207B
:1007800031F0ECF8BE4908600846006808B91A2044
:1007900065E7AD490978481C2F2131F0DFF8B949E8
:1007A00008600846006808B91B2058E7A649097880
:1007B00088004E2131F0D2F8B3490860084600683D
:1007C00008B917204BE7A049097801EB81014800DF
:1007D000162131F0C3F8AD4908600846006808B931
:1007E00018203CE7984909784800162131F0B6F8FE
:1007F000A74908600846006808B919202FE70121B9
:100800004FF4846031F0AAF8A249086008460068F5
:1008100008B91F2023E78C480078012822D002283D
:1008200010D003282FD102204FF47A739A4A9B49A3
:10083000794400909AA030F0B9FF04460CB93320F7
:100840000DE700BF02204FF47A73974A9349794429
:100850001E39009095A030F0A9FF04460CB9342051
:10086000FDE600BF02204FF47A73774A08328B49C5
:100870007944403900908FA030F098FF04460CB9BD
:100880003520ECE601E03620E9E600BF02204FF417
:10089000C873002289497944009089A030F086FF0E
:1008A00004460CB93C20DAE602204FF4C87300225B
:1008B00085497944009085A030F078FF04460CB952
:1008C0003D20CCE602204FF4C873002283497944CE
:1008D000009083A030F06AFF8449086008460068F1
:1008E00008B93D20BBE602204FF4C87300228049BE
:1008F000794400907FA030F059FF81490860084694
:10090000006808B93D20AAE64F4890F8D8030428AB
:100910000DD004204FF4C87300227A497944009026
:1009200079A030F043FF04460CB93F2097E602203F
:100930004FF4C873002277497944009076A030F0D4
:1009400035FF04460CB9412089E63F4890F8710410
:10095000C0F34000A8B13C4890F8D803042810D058
:1009600002204FF4C87300226D49794400906DA0B5
:1009700030F01CFF6F4908600846006808B9402045
:100980006DE66D4890F8FA00012810D105204FF46B
:10099000C873002269497944009069A030F006FFCD
:1009A0006A4908600846006808B9422057E60020F6
:1009B00055E608B54FF0000800206549087000F0C2
:1009C0008BFE00F0ADFC4FF40031880231F0F6F8F8
:1009D000012032F0E7FB2FF08BFD00F00C00042823
:1009E00008D02FF0F6FC04202FF052FD2FF05DFD13
:1009F0002FF0FCFC012031F060FF56A1574834F085
:100A000037FD00BF032301221146554831F0B8F9E4
:100A1000534831F026FA00BF0221514831F05AFB09
:100A20000028F9D04E4831F05DFA044648F6CC5023
:100A3000604340F6FF71B0FBF1F404F5FA706421F5
:100A4000B0FBF1F422468DE0902B00202420002002
:100A5000282000202C2000203020002034200020DE
:100A60003C2000203820002068200020402000206A
:100A70005020002054200020582000205C2000201E
:100A80006020002044200020642000206C200020F2
:100A90007020002048200020682F0020BB56010055
:100AA0004661636533000000802D00204661636568
:100AB00032000000466163653100000063460200B9
:100AC0004C65647300000000FD9901004261636B96
:100AD00067726F756E64484D49000000B3E3010012
:100AE000446973706C6179484D490000742000209E
:100AF00029C302004C6F616442616C616E636500E2
:100B0000DC230020F58F010050726F746F636F6CEF
:100B100065000000C1B000004750525300000000C3
:100B2000BD5A02004C65637465757242616E636103
:100B300069726500182000206CA1002015C8020011
:100B4000436F6D7074657572494D4400F423002045
:100B5000782000201B5B324A0D000000AD320020DF
:100B600000210140E9A1F14834F082FCC82CFFF4D7
:100B700049AF40F2044404F53674EDA1EB4834F07B
:100B800077FCF3A1F34834F073FCF34A511EF348A9
:100B900001F0DEF818B1F2A1EE4834F069FCED483E
:100BA0000090F0487844F04A7A44F0A10368DF48A6
:100BB00034F05EFCF3A1DD4834F05AFCDB48F9491F
:100BC0000A680260496841600930F7490A680260B2
:100BD000496841600930F54979440A68026049680A
:100BE0004160F3A1F34834F043FC7B2031F0F1FE87
:100BF000B0B1F1A1EF4834F03BFCF0497944CB4867
:100C000034F036FC002400E0641CED488442FBD341
:100C10000020EC490860EC490860EC49086004E0F9
:100C2000E8480068401CE749086004F04FFFE84AC4
:100C30001421002005F008F92FF0FAF90421E44806
:100C40002FF0FFF90746E2480069B84202D0FF20C2
:100C5000DF49087023F071FD1EF01CFA1FF087F8C1
:100C60000EF0BEF91EF0A2FDDA49C1F8840500219C
:100C7000D8484163C0F81C1228210187A0F820122F
:100C80000120D44908720221D24880F8F0110021D5
:100C900080F877140020CF490870FF21CD4880F8F4
:100CA000E21180F8CA13002180F8ED11012180F8CB
:100CB000EE11022180F8EF11012180F8D5130021F7
:100CC00080F8D613022180F8D71301F091F903F0D0
:100CD000B9FEBF480078FF2809D0BF487844BF4B11
:100CE000BFA228210090C44834F0D8FB09E0BA48DC
:100CF00078441438B94BC1A228210090BE4834F082
:100D0000CDFB04F0BEFD7B2031F063FE40B1C14855
:100D100078448079582803D16421BF4801F0A9FAAA
:100D200032F0E5F8BD48006800F5FA6400BFBB4842
:100D300000688442FBD87D489A49496801600020D8
:100D40007A490871B34B7B44363B0A46B4A1AA48A2
:100D500034F08EFBB148006800F57A7400BFAF48EC
:100D600000688442FBD8B4A1A34834F081FBAB48AF
:100D7000006800F57A7400BFA84800688442FBD878
:100D800021F09AF838BB0120B4490860B449C1F891
:100D90009002B4490860B4490860B4490860B04999
:100DA000C1F8A002B2A1944834F062FB00240BE029
:100DB000FF2104EB4400C0EB84128648083000EBAE
:100DC000C20080F82810641C022CF1D300BF002060
:100DD00023F017FBFBE7AE482BF000FF7D4890F8AF
:100DE000760460B1ABA1844834F042FB8B480068C4
:100DF00000F5FA6400BF894800688442FBD8754852
:100E000090F8D803032811D0724890F8D80304282A
:100E100007D10020A84908604FF4E13025F038FEE2
:100E200004E00120A449086009F0F3F8FFF7D0FAC4
:100E300042F2107190FBF1F201FB12094A469FA1A8
:100E4000A04834F015FB00BFFFF7C2FA42F2107160
:100E500090FBF1F201FB12094A4698A19948401D06
:100E600034F006FB04229749491D481F34F044FE24
:100E70000028E9D02CF000FE564890F87004C0F32A
:100E8000400020B103F058FA002003F043FA0EF0BE
:100E9000D4FC00240BE0012104EB4400C0EB8412DD
:100EA0004C48083000EBC20080F8FB10641C494835
:100EB0000078A042EFD8474890F8750420B300248A
:100EC0001DE000250FE0032104EB4400C0EB841279
:100ED0004048083000EBC200001D05EB450200EB66
:100EE0008200C1716D1C04EB4400C0EB84113948D1
:100EF000083000EBC1004078A842E4D8641C3548B3
:100F00000078A042DDD802E1DEE000000D52554E2F
:100F10002074656E73696F6E203D20253264206DEC
:100F20005620283C2032305629000000AD320020E7
:100F30001B5B324A0D48454C4C4F20574F524C4496
:100F40002050756C73652072657365742000000015
:100F50004F4B0000AD330020F0FF050800000208F1
:100F60006B6F000048F40D0034F403005665727393
:100F7000696F6E20257320253038582025730A0D9F
:100F800000000000202020202020202020202020E1
:100F900020202020202020202020202020200A0D7A
:100FA00000000000E03F0008E0FF0B0804F4070029
:100FB000535700001C20002048570000147F0300F6
:100FC00000E1F50504000020080000200C000020CE
:100FD000BD330020902B0020E8C603000078FF1FDF
:100FE0002025732025732020756E6C6F636B207431
:100FF0006167204F4B2020003839002020257320C6
:1010000025732020756E6C6F636B20746167204EB2
:1010100044202000CCF2030000C00608B4200020C9
:1010200042494F53203A2042494F532573204150A3
:10103000504C493A202573002020202020202020D9
:1010400020202020202020202020202020202020A0
:10105000202020202020202000000000A00240426C
:1010600000804042B002404298824042A882414201
:10107000202020444556494345204B4F2020202026
:1010800020434F4E464947204552524F52202000A0
:101090006CA100202121204445425547204D4F445A
:1010A000452021212121204445425547204D4F44D0
:1010B0004520212100000000B8024242253034754D
:1010C000000000000231002000241BE000250EE09B
:1010D000012104EB4400C0EB8412744800EBC20011
:1010E000001D05EB450200EB8200C1716D1C04EB95
:1010F0004400C0EB84116D4800EBC1004078A84269
:10110000E6D8641C694808380078A042DED810F0A0
:10111000F1FC00245FE04FF00008012600254FE0BD
:1011200004EB4400C0EB8411604800EBC100001DDB
:1011300005EB450110F82100022819D004EB44000A
:10114000C0EB8411594800EBC100001D05EB4501BF
:1011500010F8210003280BD004EBC402544800EB24
:10116000820005EB450200EB82000672761C10E05F
:10117000B8F1000F02D106F0FF08761C04EBC401A1
:101180004B4800EB810005EB450100EB810080F846
:10119000088004EBC401464800EB810005EB4501E3
:1011A00000EB8100407A50B9012104EBC4024048B1
:1011B00000EB820005EB450200EB820041726D1CE2
:1011C00004EB4400C0EB8411384800EBC1004078C8
:1011D000A842A5D8641C354808380078A0429AD89F
:1011E00000240AE004EB4401C1EB84122F4901EB17
:1011F000C200FE2114F0ECF9641C2C480838007879
:10120000A042EFD84FF0FF302A490860FFF722FADA
:1012100030B90120284908701EF02CFD30F0C2FAC8
:1012200026A12F4834F024F92048083890F87F058B
:1012300002281DD100202B4908602B49C1F88C02DF
:101240002A4908602A4908602A4908602A49086032
:101250004FF00100294908602949086029490860C0
:1012600029490860294908601F49C1F8A00203E024
:101270005B21084623F007FD00BF002023F0C1F8E2
:10128000FBE708B500BF2248006800F1640400BF16
:101290001F4800688442FBD81E4880231E4A402114
:1012A00000901E4831F01CFAEDE70000982B00205A
:1012B0001831002014200020782000202020204415
:1012C0004556494345204B4F20202020204F532096
:1012D000494E4954204552524F52202000000000F0
:1012E000383900208882404200804042AC024042AF
:1012F00094824042A48241429C824042A0024042E9
:1013000090824042B002404298824042A8824142CC
:10131000B4200020D13300209E4F00201478FF1FFE
:101320001CB50121FE4831F0BAFC012144F2E00075
:1013300031F0C4FC0121FB4831F0DEFC0121FA4808
:1013400031F0E9FC4FF4407030F0EEFB0120F7493A
:101350000860F749C1F8A402F64890F87F05032811
:1013600031D1684631F0D3F84FF4C05000900320DB
:101370008DF8050000208DF804008DF807006946FF
:10138000ED4831F05FF8684631F0C1F84FF4C050D5
:10139000009003208DF8050002208DF80400002045
:1013A0008DF806008DF807006946E34831F04AF8E9
:1013B0000A220B21E04831F0EEF80A220C21DE4827
:1013C00031F0E9F813E0684631F0A1F801208DF81A
:1013D000040000208DF806008DF805008DF8070048
:1013E0004FF4C05000906946D34831F02BF868465E
:1013F00031F08DF801208DF8040000208DF80600F2
:101400008DF805008DF807004FF441700090694693
:10141000C94831F017F8684631F079F801208DF8A5
:1014200007004FF4816000906946C34831F00AF824
:10143000684631F06CF803208DF80400F32000902A
:101440006946BD4830F0FEFF684631F060F8002084
:101450008DF8040002208DF8070080030090694693
:10146000B54830F0EFFFB34890F87F0503280ED160
:10147000684631F04CF800208DF8040001208DF80A
:101480000700000200906946AB4830F0DBFF012006
:10149000AA490860684631F03AF801208DF8040046
:1014A00000208DF806008DF805008DF80700A14892
:1014B00090F87F05032803D147F23C70009002E0CA
:1014C00047F2FC70009069469D4830F0BBFF012058
:1014D0008DF80600974890F87F05032803D148F25D
:1014E000C000009002E04FF400400090694694482C
:1014F00030F0A8FF684631F00AF803208DF80400A8
:10150000009069468E4830F09DFF00208D490860AC
:101510004FF001008C49C1F8A8028C4908604FF0D7
:1015200000008949C1F8B402684630F0F0FF01209C
:101530008DF8040000208DF806008DF807008DF866
:1015400005004FF4515000906946814830F07AFF11
:1015500001208DF806004002009069467C4830F07A
:1015600071FF684630F0D3FF03208DF804003F2060
:1015700000906946764830F065FF684630F0C7FF56
:1015800000208DF8040002208DF807004FF4C07091
:10159000009069466E4830F055FF684630F0B7FF5E
:1015A00001208DF80700C00200906946684830F0BD
:1015B00049FF002067490860684630F0A8FF012015
:1015C0008DF8040000208DF806008DF805008DF8D8
:1015D00007004FF4DC70009069465F4830F032FF3E
:1015E00001208DF806004FF46040009069465A488B
:1015F00030F028FF4F4890F87F05032823D1684634
:1016000030F085FF4FF48060009000208DF80400DA
:101610008DF807006946504830F014FF01204F490B
:101620000860684630F073FF4FF4007000900120AE
:101630008DF804008DF806008DF8070069464648CD
:1016400030F000FF13E0684630F061FF01208DF8B4
:10165000040000208DF806008DF805008DF80700C5
:101660004FF4C060009069463B4830F0EBFE00202C
:101670003B490860684630F04AFF01208DF80400BD
:1016800000208DF806008DF805008DF807004FF654
:10169000FF3000906946334830F0D4FE684630F0A1
:1016A00036FF00208DF8040002208DF8070040026C
:1016B000009069462B4830F0C5FE30F0B9FA0121A0
:1016C000294830F018FB0121284830F014FB012193
:1016D000274830F010FB1CBD0EB501210A2031F067
:1016E000DEFA684630F013FF01208DF804008DF813
:1016F0000600C00300906946114830F0A3FE68461A
:1017000030F005FF01208DF804008DF8060040033D
:1017100000906946104830F095FE0DF02BFA29E054
:101720001F1004003F001E301307010088024042D2
:1017300000004042902B002000000240A88240425E
:1017400000040240A402414200004142B002414272
:101750000008024094824142000C0240A4824142AF
:10176000B802424200100240002001400021014026
:101770000022014002A9D02010F052F9012804D023
:101780000321074880F87F1503E00221044880F810
:101790007F150EBD03480449086000BFFEE7000046
:1017A000902B00200400FA050CED00E070B5034614
:1017B0002020002408E01D780E78B54201D0412099
:1017C00004E05B1C491C641C032CF4D300BF2028DC
:1017D0002DD11D780E78B54201D0492027E05B1C41
:1017E000491C1D780E78B54201D049201FE05B1CD2
:1017F000491C1D780E78B54203DA56205B1C491C43
:101800000DE01D780E78B54207D15B1C491C1D7890
:101810000E78B54203DA562001E05B1C491C5B1CC4
:10182000491C22B91D780E78B54200D0492070BD00
:1018300000B50122124979441248FFF7B7FF20286A
:1018400001D0012000BD0020FCE700B500220E49B8
:1018500079440E487844FFF7A9FF202801D00120E1
:1018600000BD0020FCE770B504460D46012221466C
:101870002846FFF79BFF562801D122F023FD70BDBB
:1018800025730300E0FF0B081473030088E70700CB
:1018900010B540F6FF742EF01DFE0446A4F57060EE
:1018A000FF380AD02EF095FD002140F6FF702EF093
:1018B000A6FD2EF0FAFD2EF099FD10BDFFF7E8FF12
:1018C000022100202EF062FC022108202EF05EFC96
:1018D000022110202EF05AFC022118202EF056FC76
:1018E000022120202EF052FC022128202EF04EFC56
:1018F000022130202EF04AFC4FF000640BE04FF440
:10190000C0200059401C05D04FF4C020015920468A
:101910002EF0E6FC241DF8488442F0D32EF0F7FBAD
:10192000F648F749086000BFFEE772B603230122BC
:101930001146F44830F024FAF24830F092FA00BF31
:101940000221F04830F0C6FB0028F9D0ED4830F015
:10195000C9FA054648F6CC50684340F6FF71B0FB23
:10196000F1F5E948056044F6206085421CD92EF067
:10197000C1FBFFF78DFF022150202EF007FCE34C46
:1019800008E02068401C04D004F5E02021682EF017
:10199000A7FC241DD8488442F3D3AFF2DF0000F542
:1019A000E020804700BFFEE7D448D549086000BF6B
:1019B000FEE710B50346002208E003F07044240F50
:1019C0001B01D3487844005D8854521C082AF4D384
:1019D00000208854084610BD30B503460024CD4A87
:1019E0000AE0B3FBF2F505FB123305F130000855B0
:1019F0000A20B2FBF0F2641C002AF2D10020085544
:101A0000084630BD30B50246002000BF0002147801
:101A1000303CC14D7D442C5D23015478303C2C5D1D
:101A20002344921C1844491E0029EFD130BD30B523
:101A3000024600204C1E022505FB042200BF0002C6
:101A40001478303CB44D7D44323D2C5D23015478F4
:101A5000303C2C5D2344921E1844491E0029EED1CF
:101A600030BD2DE9F05F06464FF0000B30780028BE
:101A700071D00121701CFFF7C5FF80460221F01CC8
:101A8000FFF7C0FF82460121F01DFFF7BBFF814633
:101A90005FEA090004D001287ED004287DD1A0E0AF
:101AA0009E48006800EB0A049D48844224D3924873
:101AB000401E844220D89B480078E8B99A480078B4
:101AC000D0B9012099490870002512E0E9000931D8
:101AD00088190421FFF7ABFF07464FF42020015976
:101AE000B94204D0394604F520202EF0F9FB6D1CD4
:101AF000241DB5EB980FE9D3B4F1006F1AD38C48CD
:101B0000844217D8002512E0E90009318819042120
:101B1000FFF78DFF07464FF480400059B84204D0CC
:101B2000394604F580402EF0DBFB6D1C241DB5EB1F
:101B3000980FE9D37F48844224D37F48844221D838
:101B40007A480078F0B978480078D8B9012075490A
:101B50000870002513E052E0E900093188190421DA
:101B6000FFF765FF07464FF400300059B84204D034
:101B7000394604F500302EF0B3FB6D1C241DB5EB87
:101B8000980FE9D35C48844227D36A48401E8442B8
:101B900023D86448007801E020E02EE0E8B96348EB
:101BA0000078D0B9012060490870002512E0E900F2
:101BB000093188190421FFF73AFF07464FF4C02086
:101BC0000059B84204D0394604F5C0202EF088FBF5
:101BD0006D1C241DB5EB980FE9D30FE04FF0010BFE
:101BE0000CE0022106F10900FFF70CFF4B490860E9
:101BF000084600880004086000E000BF00BF5846A7
:101C0000BDE8F09F3D483E49086000BFFEE710B5C3
:101C1000FFF73EFE2EF06EFA48482EF08BFC0221B4
:101C200000202EF0B3FA4FF000640BE04FF4804038
:101C30000059401C05D04FF48040015920462EF039
:101C40004FFB241D3A488442F0D32EF060FA10BDB9
:101C500010B5FFF71DFE2EF04DFA38482EF06AFC45
:101C6000022148202EF092FA324C0BE04FF4003063
:101C70000059401C05D04FF40030015920462EF089
:101C80002FFB241D2C488442F0D32EF040FA10BDC7
:101C900010B5FFF7FDFD2EF02DFA28482EF04AFC76
:101CA000022138202EF072FA022140202EF06EFA26
:101CB000114C0BE04FF4C0200059401C05D04FF4EC
:101CC000C020015920462EF00BFB241D1948401E50
:101CD0008442EFD32EF01BFA10BD02460868401C68
:101CE00003D14868401C00D1704710680B689842C7
:101CF00026D00120F8E70000000006080400FA05DD
:101D00000CED00E0002101401C21002000C005086E
:101D1000A971030000CA9A3B6A7103007C2000206D
:101D2000000002088520002086200020842000205A
:101D3000FF3F000800000A08FFFF0B08F100010048
:101D400050684B68984201D00120CDE70020CBE7D6
:101D5000F0B504460D4600200023214602E00F782E
:101D60003B44491CA942FAD99BB211460F7891F81D
:101D700001C007EB0C27BEB2B34200D00120F0BD7A
:101D800010B592499248FFF7A8FF48B18F4A103228
:101D9000511E8F482030FFF7DBFF08B9FFF737FFF0
:101DA00010BD10B58B4A511E8B48FFF7D1FF28B1EB
:101DB0002EF0A0F9022148202EF0E8F9864A103AC8
:101DC000511E8648FFF7C4FF48B12EF093F9022157
:101DD00038202EF0DBF9022140202EF0D7F910BD7B
:101DE0002DE9FF4F83B004460E4692464FF0FF3078
:101DF0000090307800287DD00121701CFFF702FE92
:101E000007460221F01CFFF7FDFD02900121F01DA5
:101E1000FFF7F8FD83465FEA0B0006D001286AD081
:101E2000042869D00A2868D1BBE06D48016802988F
:101E300001EB00086B48406818B96A48C0F8008098
:101E400029E068480068674949680844404522D24B
:101E500000BF64480068634949680844A8EB00096A
:101E6000B9F1040F0ADB042269465F4823F010FD34
:101E70005C484068001D5B49486009E04A46694685
:101E8000594823F005FD5748406848445549486083
:101E9000B9F1000FDDD1414620682EF021FA20680B
:101EA000001D20603D4617F0030F03D0012000EB1A
:101EB00097008500294620682EF012FA2068001D40
:101EC0002060002527E02068001D484988421AD27A
:101ED000E900093188190421FFF7A9FD0190206864
:101EE00001992EF0FDF9042201A93F4823F0D0FC0E
:101EF0003C4803E068E043E047E063E04068001DE1
:101F00003849486003E0032007B0BDE8F08F6D1C3E
:101F10002068001D2060B5EB970FD4D317F0030F96
:101F20002DD04FF0FF30019000250BE0B908C9001B
:101F3000093101EB450188190121FFF778FD01A95D
:101F400048556D1C07F00300A842EFD82068001D1B
:101F5000264988420ED2206801992EF0C1F9042248
:101F600001A9214823F094FC1E484068001D1D492A
:101F7000486001E00320C7E72068001D206022E0E0
:101F80000121069801700020BEE7022106F1090038
:101F9000FFF738FD12490860084600880004086011
:101FA00011E006980078012807D1042106F1090004
:101FB000FFF728FDCAF8000002E00020CAF8000080
:101FC0000120A1E700BF00BF00209DE7E07F0008DF
:101FD000E03F0008F0FF0B0800000A0800000608B8
:101FE00080200020644300200C430020FFFF0F08E6
:101FF00000B58DB000200A90A720ADF82400002085
:10200000ADF82C00ADF826008DF82E0009A9F9488E
:1020100031F041FF4FF6FF70F6492C310860012185
:10202000F44831F0D2FF02F0A9FB0DF0FFFE0020D2
:10203000F1490870F1490870F1490870F1490870D8
:10204000F1490870F1490870F1490870F1490870C8
:10205000F1490880F1490880F1490860F1490870A8
:102060000021F14880F88A1180F88811C0F88411A5
:10207000C0F88011C0F87C1180F8891180F8D8115F
:1020800080F8D9112D2180F8C611002180F8C711E0
:102090002D2180F8AE13002180F8AF1380F8721361
:1020A00080F87013C0F86C13C0F86813C0F864139C
:1020B00080F8711380F8C01380F8C11380F8B8114C
:1020C00080F8A01380F8B91180F8A11380F8BB1133
:1020D00080F8A3130020D5490860D5490860D54988
:1020E00008600021D048C0F8C011C0F8A81340F221
:1020F000DE31C0F8BC11C0F8A413002180F8C5116E
:1021000080F8AD1380F8C41180F8AC1380F8DB11AF
:1021100080F8C31305A830F039F805A9002030F085
:1021200018F80121002030F038F803200A904FF40D
:102130002460ADF824000020ADF82C00ADF8260096
:1021400009A9BD4831F0A7FE32208DF830000220E9
:102150008DF8310000208DF8320001208DF8330019
:102160000CA82FF0E7FC0121B34831F02EFF40F21C
:102170008F100A902920ADF824000020ADF82C0023
:10218000ADF8260009A94FF0804031F084FE1C20F4
:102190008DF8300003208DF8310000208DF83200DA
:1021A00001208DF833000CA82FF0C4FC0121880712
:1021B00031F00BFF01221146900732F0BFFB09A856
:1021C00031F0A3FEA720ADF8240009A99B4831F007
:1021D00062FE4FF6FF709949C8620121974831F0BD
:1021E000F4FE1B208DF8300001208DF83100002016
:1021F0008DF8320001208DF833000CA82FF09AFCE6
:10220000684632F04AF82020ADF800000120ADF811
:1022100002006946894831F0E5FE6946874831F099
:102220002EFF40F2CF700A902920ADF82400002044
:10223000ADF82C00ADF8260009A9814831F02BFE3D
:102240001E208DF8300006208DF8310001208DF819
:1022500032008DF833000CA82FF06CFC0121784877
:1022600031F0B3FE01221146754832F067FB0DB024
:1022700000BD70B504460D46FFF7E7FA00B170BD2A
:10228000002201216C4832F059FB00206D49087092
:102290006D4908806D4805606D4804600122114653
:1022A000654832F04BFB00BFE9E710B501216248F9
:1022B00032F07BFB6348007810B101284ED125E055
:1022C0006148B0F90000B0F5006F0CDA5E48008894
:1022D000083000B25C4908800846008881B20020BE
:1022E0002FF0B1FF11E000205A49086055480078EE
:1022F000401C544908704FF4006053490880084658
:10230000008881B200202FF09EFF43E05148016811
:102310000068401C4F4A10604D48006830F9114079
:10232000A0B2B0F5004F0AD146480078401C45499C
:1023300008704FF4006100202FF085FF0DE0434846
:1023400000686043C82190FBF1F004B2241104F549
:102350000064A1B200202FF076FF1BE03A48B0F9EC
:10236000000008280CDB38480088083800B23649DD
:1023700008800846008881B200202FF064FF08E042
:10238000002108462FF05FFF002201212A4832F089
:10239000D5FA00BF00BF10BD2F48006890B1224899
:1023A00090F8C50138B100202C4908604FF00100B9
:1023B0002B49C1F8B8024FF00000274908602949AD
:1023C000C1F884012848006890B1174890F8AD031F
:1023D00038B10020254908604FF001002449C1F8B8
:1023E000A0024FF00000204908601E49C1F8880192
:1023F00070470000000401400C2100200D21002046
:102400000E210020A8200020A9200020AA200020C2
:10241000AB200020AC200020AE200020B020002007
:10242000B420002020210020902B0020CC20002070
:10243000C0200020D0200020000C004000000140FF
:1024400000080040982000209A2000209C200020B6
:10245000A4200020A020002004022042B482404298
:102460000080404200002042080220429C824142FB
:102470000080414210B50022FD4B1A60FD4BC3F8AD
:10248000A422FD4B1A60A3F104031A60FB4B1A60EF
:10249000A3F104031A60FA4B1A60A3F104031A6053
:1024A000F84B1A60F84B1A60F84B1A60F84BC3F8F7
:1024B0008C221346F74A82F8893182F8C5311A46D0
:1024C000F54B1A601346F34A82F8713382F8AD3344
:1024D0001A46F24B1A604FF00102F14B1A60F14BB1
:1024E0001A60F14B1A604FF000001DE000210FE070
:1024F000042300EB4002C2EB8014E64A083202EBF0
:10250000C402121D01EB410402EB8402D371491C89
:1025100000EB4002C2EB8013DE4A083202EBC3023A
:1025200052788A42E4DC401CDA4A12788242DDDCCE
:1025300010BD10B5D0F88C210F2A0DD290F8BD2116
:1025400012B990F8BC211AB1032280F8B2211EE022
:10255000002280F8B2211AE0D0F88C212D2A03D273
:10256000042280F8B22112E0D0F88C214B2A03D249
:10257000022280F8B2210AE0D0F88C21692A03D225
:10258000012280F8B22102E0002280F8B22190F806
:10259000B22190F8B1319A424FD190F8B321521C38
:1025A00080F8B32190F8B321642A4DDB642280F8CF
:1025B000B32190F8B22180F8B02190F8E22112B353
:1025C00090F8B021012A07D090F8B021022A03D058
:1025D00090F8B021042A17D16422C0F88421002188
:1025E0000EE001EB4103021D12F82320082A06D158
:1025F000012301EB4104021D02EB84029371491C8B
:1026000042788A42EDDC1FE040F6C412C0F8842113
:1026100000210EE001EB4103021D12F82320082ADD
:1026200006D1002301EB4104021D02EB84029371E9
:10263000491C42788A42EDDC06E0002280F8B32192
:1026400090F8B22180F8B12110BD984A128891B259
:1026500000BF964A1288521A92B28242F9DB704742
:1026600070B50121880732F0A0F99148006805286B
:1026700073D3884890F8C401002848D08D4800687A
:1026800001281ED18C48006868B9824890F9DD01A4
:102690000A2816DA7F4890F8DD01401C41B27D48D7
:1026A00080F8DD110DE07B4890F9DD0110F1640F39
:1026B00007DD784890F8DD01401E41B2754880F88A
:1026C000DD1100207D4908604FF001007049C1F81C
:1026D000B4027B48416A6F48D0F8BC01084478498D
:1026E00048634FF00000774908606A4890F8C501D8
:1026F000D0B16848D0F8BC01A0F54071DE3913D0E4
:102700007148007880B90120704908600CE0012010
:102710006A4908604FF000005D49C1F8B402044600
:1027200000E0641C0B2CFCD35A4890F8AC03E8B3CF
:102730006748006801281FD16648006870B955488D
:1027400090F9C5030A2817DA524890F8C503401CCF
:1027500041B2504880F8C5130EE043E04D4890F96F
:10276000C50310F1640F07DD4A4890F8C503401E09
:1027700041B2484880F8C5130020574908604FF01F
:1027800001003C49C1F89C024D48416A4148D0F8DB
:10279000A40308444A4988634FF000004F49086089
:1027A0003C4890F8AD0310B33A4800E00CE0D0F894
:1027B000A403A0F54071DE3919D043480078B0B9C0
:1027C00001204749086012E00120434908604FF0AA
:1027D00000002849C1F89C02044600E0641C0B2C50
:1027E000FCD304E0002400E0641C222CFCD33D4810
:1027F00090F8FA0000283AD10323012205213A4833
:102800002FF0BEFA38482FF02CFB032301220721BA
:1028100036482FF0B5FA35482FF023FB00BF0221D0
:1028200031482FF057FC0028F9D000BF02212F4873
:102830002FF050FC0028F9D02B482FF053FB054611
:102840002A482FF04FFB0446AC4201D3641B00E042
:102850002C1B2748006804FB04002549086003235B
:102860000122052120482FF08BFA1F4842E039E170
:10287000A882414200804142A0824042B0024042D0
:1028800098824042A0024042888240429082404268
:1028900000804042902B0020A0024242A40242420B
:1028A000BC024242948241428C8241422404014053
:1028B000C02000203882404200824142B88240421B
:1028C00000000140040220420C210020840120422B
:1028D0002082414204824142A082414208022042B9
:1028E000880120426CA1002000200140002101400D
:1028F000E02000202FF0B5FA032301220621FC4836
:102900002FF03EFAFA482FF0ACFA00BF0221F94846
:102910002FF0E0FB0028F9D000BF0221F4482FF08F
:10292000D9FB0028F9D0F3482FF0DCFA0546F0482F
:102930002FF0D8FA0446AC4201D3641B00E02C1BF4
:10294000ED48006804FB0400EB4908600323012202
:102950000521E8482FF014FAE6482FF082FA032305
:1029600001220A21E2482FF00BFAE1482FF079FA10
:1029700000BF0221DF482FF0ADFB0028F9D000BFD7
:102980000221DB482FF0A6FB0028F9D0D9482FF010
:10299000A9FA0546D6482FF0A5FA0446AC4201D361
:1029A000641B00E02C1BD548006804FB0400D349DD
:1029B0000860032301220521CE482FF0E1F9CD481C
:1029C0002FF04FFA032301220B21C9482FF0D8F929
:1029D000C7482FF046FA00BF0221C5482FF07AFB06
:1029E0000028F9D000BF0221C2482FF073FB002855
:1029F000F9D0C0482FF076FA0546BD482FF072FA9C
:102A00000446AC4201D3641B00E02C1BBC480068A8
:102A100004FB0400BA490860032301220521B548DC
:102A20002FF0AEF9B3482FF01CFA0323012208213E
:102A3000AF482FF0A5F9AE482FF013FA00BF0221DE
:102A4000AB482FF047FB0028F9D000BF0221A9486E
:102A50002FF040FB0028F9D0A6482FF043FA054696
:102A6000A3482FF03FFA0446AC4201D3641B00E0B8
:102A70002C1BA448006804FB0400A249086003233F
:102A8000012205219B482FF07BF99A482FF0E9F9A4
:102A900003230122092196482FF072F994482FF060
:102AA000E0F900BF022192482FF014FB0028F9D072
:102AB00000BF02218F482FF00DFB0028F9D08D4870
:102AC0002FF010FA05468A482FF00CFA0446AC4263
:102AD00001D3641B00E02C1B8B48006804FB04003E
:102AE0008949086089480068052844D3884890F8D7
:102AF000FA00012802D11E20FFF7A7FD04230122BE
:102B00000C217B482FF03CF979482FF0AAF90423D7
:102B100001220D2177482FF033F976482FF0A1F9E3
:102B200000BF022172482FF0D5FA0028F9D0704872
:102B30002FF0D8F904468E20604340F6FF71B0FBB9
:102B4000F1F17448C0F8941100BF022169482FF0D8
:102B5000C1FA0028F9D067482FF0C4F904468E2046
:102B6000604340F6FF71B0FBF1F16A48C0F87C1396
:102B700000206649086065480068401C6349086099
:102B800064480830FFF7D5FC6348FFF7D2FC634880
:102B9000006864287ED3032301220E2155482FF0BC
:102BA000EFF854482FF05DF9032301220F2150481C
:102BB0002FF0E6F84E482FF054F95948006820B13C
:102BC00057480068401E564908604D4800685549FE
:102BD000086055480068554908604B4800685449EA
:102BE00008604548006853490860464800685249F3
:102BF0000860424800685149086000204049086068
:102C000049490860404908603B4908603D490860FF
:102C10003A49086001204A49086000203F4908609D
:102C200000BF022133482FF055FA0028F9D031486F
:102C30002FF058F9044640F6E440604340F6FF7137
:102C4000B0FBF1F4334890F8EA0150B940F24C403F
:102C5000604341F28831091BB0FBF1F12D48C0F807
:102C60008C1100BF022122482FF034FA0028F9D03D
:102C70001F482FF037F9044640F6E440604340F621
:102C8000FF71B0FBF1F4234890F8D20310B940F281
:102C90004C4000E008E0604341F28831091BB0FB82
:102CA000F1F11C48C0F874131C480068401C1B4913
:102CB000086070BD90F88211012911D1002180F8BF
:102CC00082110178012901D11E4A1160017802297F
:102CD00002D101211C4A11604FF0010180F88111DD
:102CE00090F8811119B9002180F8811148E02DE098
:102CF0000021014000200140F020002000210020A0
:102D0000D8200020F8200020E8200020C02000204B
:102D10006CA10020902B0020802D0020CC200020D2
:102D2000E4210020D4200020E0200020DC2000202E
:102D3000E4200020EC200020F4200020FC200020D3
:102D4000D0200020A0024242A402424290F880110A
:102D500029B1002180F8811180F8BD1110E0D0F870
:102D6000201143F6982291420AD990F8B011022915
:102D700006D090F8C211032902D1002180F88111F8
:102D8000FE4991F87414002954D090F8D011491CD0
:102D900080F8D01190F88111012905D1002180F827
:102DA000D01180F8D11145E090F8D0110B2941DB0A
:102DB0000B2180F8D011017801291CD1F049096854
:102DC00029B190F8D111491C80F8D11102E00021FD
:102DD00080F8D11190F8D11104292BDB042180F85F
:102DE000D111012180F8D311E64A11604FF00001A2
:102DF00080F8BD111EE0017802291BD1E249096863
:102E000029B190F8D111491C80F8D11102E00021BC
:102E100080F8D11190F8D11104290BDB042180F83E
:102E2000D111012180F8D311D84A11604FF000016F
:102E300080F8BD1190F8811129B90178012902D1DA
:102E40000021D34A116090F8811129B90178022933
:102E500002D10021CF4A11607047D0F8B821642315
:102E6000B2FBF3F2D1B290F8BD2122B940F2DE32CA
:102E7000C0F8B4210FE0062909DB332907DCD0F8BC
:102E8000B8210623B2FBF3F2C0F8B42103E040F20C
:102E9000DE32C0F8B421704770B52DED028B27F0FB
:102EA0003DFD4FF47A7110FB01F600259FEDBA0A43
:102EB000B0EE408A13E005EB4500C0EB8511AF484A
:102EC000083000EBC100D0F89C0100EE100AB8EE0B
:102ED000400A30EE080AB0EE408A681CC5B2A74826
:102EE0000078A842E7DCA54890F8E4034FF47A7133
:102EF00010FB01F4A64200D2344600EE104AB8EEB0
:102F0000400AB4EEC08AF1EE10FA0ED800EE104A74
:102F1000B8EE400A30EE480ABCEEC00A974880ED91
:102F2000FA0A0120BDEC028B70BD00209349C1F864
:102F3000E80300BFF6E770B52DED068B97480078E3
:102F400010B9BDEC068B70BD9548006800287DD097
:102F500000209349086000244FE104EB4400C0EBDB
:102F600084118648083000EBC100D0F88401B0F528
:102F7000FA6F6CD2002588E004EB4400C0EB8411AA
:102F80007E48083000EBC100001D05EB450110F83C
:102F9000210002280ED004EB4400C0EB84117748D6
:102FA000083000EBC100001D05EB450110F82100C1
:102FB000032869D104EB4400C0EB84116F4808304A
:102FC00000EBC100001D05EB450100EB810080799D
:102FD00001284ED004EBC401724800EB810005EBE0
:102FE000450150F82100401C04EBC4026D4901EB7F
:102FF000820105EB450241F8220004EBC401694857
:1030000000EB810005EB450150F8210064283AD916
:10301000012104EB4400C0EB84125848083000EB57
:10302000C200001D05EB450200EB8200817100210A
:1030300004EBC4025B4800EB820005EB450240F85C
:10304000221004EB4403C3EB841601E0F6E329E00D
:103050004A4B083303EBC6031B1D05EB450603EB88
:1030600086039A796B1CD9B2631CD8B215F006FF9F
:1030700009E0002104EBC4024A4800EB820005EBA2
:10308000450240F822100CE06D1C04EB4400C0EB3C
:1030900084113A48083000EBC1004078A8423FF75D
:1030A0006BAFA9E000259BE004EB4400C0EB84116A
:1030B0003248083000EBC100001D05EB450110F857
:1030C000210002280ED004EB4400C0EB84112B48F1
:1030D000083000EBC100001D05EB450110F8210090
:1030E00003287CD104EB4400C0EB84112348083052
:1030F00000EBC100001D05EB450100EB810080796C
:10310000D0B304EBC401274800EB810005EB450177
:1031100050F82100401C04EBC402224901EB82015B
:1031200005EB450241F8220004EBC4011D4800EB09
:10313000810005EB450150F8210064284ED900219B
:1031400004EB4400C0EB84120C48083000EBC200D2
:10315000001D05EB450200EB8200817104EBC40207
:10316000104800EB820005EB450240F8221004EB0A
:103170004403C3EB841617E026E030E0902B0020D8
:103180002C824142A482404230824142908241429C
:10319000A0024242A4024242000000007820002027
:1031A000D020002018310020FE4B03EBC6031B1D6E
:1031B00005EB450603EB86039A796B1CD9B2631CB9
:1031C000D8B215F05BFE09E0002104EBC402F6481A
:1031D00000EB820005EB450240F822100BE06D1C6D
:1031E00004EB4400C0EB8411EE4800EBC1004078D2
:1031F000A8423FF759AF00BF641CEA48083800787E
:10320000A0423FF7AAAEFFF747FE00247BE004EBA5
:103210004400C0EB8411E34800EBC100D0F8840106
:1032200032280AD2002104EB4400C0EB8412DD48AE
:1032300000EBC200C0F8881164E004EB4400C0EB6E
:103240008411D84800EBC100D0F8840196280AD236
:103250003F2104EB4400C0EB8412D24800EBC200D3
:10326000C0F888114EE004EB4400C0EB8411CD4857
:1032700000EBC100D0F88401B0F5E17F0AD2202133
:1032800004EB4400C0EB8412C64800EBC200C0F857
:10329000881137E004EB4400C0EB8411C14800EB17
:1032A000C100D0F88401B0F57A7F0AD2142104EB72
:1032B0004400C0EB8412BB4800EBC200C0F8881188
:1032C00020E004EB4400C0EB8411B64800EBC100E1
:1032D000D0F88401B0F5FA6F0AD20D2104EB440056
:1032E000C0EB8412AF4800EBC200C0F8881109E0BF
:1032F0000A2104EB4400C0EB8412AA4800EBC20090
:10330000C0F88811641CA74808380078A0423FF72D
:103310007EAFA64890F8FA0000287CD1A448006847
:1033200000EE100AB8EE400AA24880ED000A0068DC
:1033300035F002FB41EC100BB0EE409AF0EE609AD3
:1033400034F0E6FBB0EE408AF0EE608A51EC180BE8
:1033500034F0FAFC97490860084690ED000AF3EE55
:10336000040AB4EEE00AF1EE10FA08DD90ED000A6E
:10337000F3EE040A30EE600A80ED000A04E01FED6F
:103380007A0A8C4880ED000A8A4890ED000ADFED49
:103390008A0A20EE200A80ED000A90ED000ADFED97
:1033A000870AB4EEE00AF1EE10FA03D21FED860AA6
:1033B00080ED000A7F48006835F0BEFA41EC100B42
:1033C000B0EE40AAF0EE60AA34F016FBB0EE409AE0
:1033D000F0EE609A9FED7A0B53EC102B51EC190B29
:1033E00034F0E4FC41EC100BB0EE408AF0EE608A61
:1033F00051EC180B34F016FF6A490839C1F828015E
:103400007148006800EE100AB8EE400A694880ED85
:10341000000A006800E00FE235F08EFA41EC100B74
:10342000B0EE409AF0EE609A34F072FBB0EE408A53
:10343000F0EE608A51EC180B34F086FC5D490860B0
:10344000084690ED000AF3EE040AB4EEE00AF1EE4D
:1034500010FA08DD90ED000AF3EE040A30EE600A7F
:1034600080ED000A04E01FEDB40A524880ED000A26
:10347000504890ED000ADFED500A20EE200A80ED62
:10348000000A90ED000ADFED4D0AB4EEE00AF1EE1D
:1034900010FA03D21FEDC00A80ED000A454800680B
:1034A00035F04AFA41EC100BB0EE40AAF0EE60AAFB
:1034B00034F0A2FAB0EE409AF0EE609A9FED400B25
:1034C00053EC102B51EC190B34F070FC41EC100B49
:1034D000B0EE408AF0EE608A51EC180B34F0A2FE98
:1034E000014630480838C0F810133848006800EE2C
:1034F000100AB8EE400A2F4880ED000A006835F047
:103500001BFA41EC100BB0EE409AF0EE609A34F0EA
:10351000FFFAB0EE408AF0EE608A51EC180B34F0FE
:1035200013FC24490860084690ED000AF3EE040AF3
:10353000B4EEE00AF1EE10FA08DD90ED000AF3EEC9
:10354000040A30EE600A80ED000A04E01FEDEE0A86
:10355000184880ED000A174890ED000ADFED1C0ABC
:1035600020EE200A80ED000A90ED000AF2EE020A39
:10357000B4EEE00AF1EE10FA03D81FEDF90A80ED7F
:10358000000A0C48006835F0D7F941EC100BB0EE9A
:10359000409AF0EE609A34F02FFAB0EE408AF0EEE6
:1035A000608A17E0982B0020183100206CA10020C1
:1035B000D4200020242100204E27E33F00007A443D
:1035C000000000000000F03FDC200020E42000208C
:1035D00075C8BD3E51EC180B34F024FEFE49C1F80D
:1035E0002C01FE48006800EE100AB8EE400AFC48C4
:1035F00080ED000A006835F09FF941EC100BB0EE49
:10360000409AF0EE609A34F083FAB0EE408AF0EE21
:10361000608A51EC180B34F097FBF14908600846BA
:1036200090ED000AF3EE040AB4EEE00AF1EE10FAAF
:1036300008DD90ED000AF3EE040A30EE600A80ED3A
:10364000000A04E09FEDE70AE54880ED000AE4483F
:1036500090ED000A5FED220A20EE200A80ED000ABC
:1036600090ED000AF2EE020AB4EEE00AF1EE10FA72
:1036700003D89FEDDC0A80ED000AD948006835F0D8
:103680005BF941EC100BB0EE409AF0EE609A34F02A
:10369000B3F9B0EE408AF0EE608A51EC180B34F0CA
:1036A000C1FD0146CC48C0F81413CF48006800EEB5
:1036B000100AB8EE400ACA4880ED000A006835F0EA
:1036C0003BF941EC100BB0EE409AF0EE609A34F00A
:1036D0001FFAB0EE408AF0EE608A51EC180B34F01D
:1036E00033FBBF490860084690ED000AF3EE040A78
:1036F000B4EEE00AF1EE10FA08DD90ED000AF3EE08
:10370000040A30EE600A80ED000A04E09FEDB50A7D
:10371000B34880ED000AB24890ED000A5FED540A0C
:1037200020EE200A80ED000A90ED000AF2EE020A77
:10373000B4EEE00AF1EE10FA03D89FEDAA0A80ED8C
:10374000000AA748006835F0F7F841EC100BB0EE1E
:10375000409AF0EE609A34F04FF9B0EE408AF0EE05
:10376000608A51EC180B34F05DFD9B49C1F83001C3
:103770009E48006800EE100AB8EE400A984880EDB6
:10378000000A006835F0D8F841EC100BB0EE409A12
:10379000F0EE609A34F0BCF9B0EE408AF0EE608A48
:1037A00051EC180B34F0D0FA8D490860084690EDC2
:1037B000000AF3EE040AB4EEE00AF1EE10FA08DDB6
:1037C00090ED000AF3EE040A30EE600A80ED000A84
:1037D00004E09FED840A824880ED000A804890ED65
:1037E000000A5FED850A20EE200A80ED000A90EDC8
:1037F000000AF2EE020AB4EEE00AF1EE10FA03D883
:103800009FED780A80ED000A7548006835F094F85D
:1038100041EC100BB0EE409AF0EE609A34F0ECF808
:10382000B0EE408AF0EE608A51EC180B34F0FAFCEE
:1038300001466948C0F81813002483E288E26C4806
:1038400090F8FA00B8BB04EB4400C0EB8411624866
:10385000083000EBC100D0F8240164282CD904EB17
:103860004400C0EB84115C48083000EBC100D0F884
:103870002801642820D904EB4400C0EB8411564889
:10388000083000EBC100D0F8241104EB4400C0EB79
:1038900084125148083000EBC200D0F828010844D7
:1038A000410804EB4400C0EB84124B48083000EBA5
:1038B000C200C0F848110AE0002104EB4400C0EB4C
:1038C00084124548083000EBC200C0F8481148484F
:1038D00090F8FA00F0BB04EB4400C0EB84113E48C2
:1038E000083000EBC100D0F8200104EB4401C1EB2B
:1038F00084123949083101EBC201D1F8241148433F
:1039000004EB4401C1EB84123349083101EBC201DD
:10391000C1F82C0104EB4400C0EB84112E480830A0
:1039200000EBC100D0F8200104EB4401C1EB84128C
:103930002949083101EBC201D1F82811484304EBB1
:103940004401C1EB84122449083101EBC201C1F8E2
:10395000300100E01EE004EB4400C0EB84111E487F
:10396000083000EBC100D0F8200104EB4401C1EBAA
:1039700084121949083101EBC201D1F848114843BA
:1039800004EB4401C1EB84121349083101EBC2017D
:10399000C1F84C0104EB4400C0EB84110E48083020
:1039A00000EBC100D0F83831D0F83C1104EB4400F2
:1039B000C0EB84120848083000EBC200D0F82C019C
:1039C000181841F1000104EB4402C2EB8413024ACF
:1039D000083202EBC3020DE0902B0020EC20002007
:1039E0002421002000000000F4200020FC20002002
:1039F0006CA1002002F59C7203C204EB4400C0EBF2
:103A00008411FE4800EBC100D0F84031D0F84411D9
:103A100004EB4400C0EB8412F84800EBC200D0F87D
:103A20003001181841F1000104EB4402C2EB841389
:103A3000F24A02EBC30202F5A07203C204EB440097
:103A4000C0EB8411ED4800EBC100D0F85031D0F844
:103A5000541104EB4400C0EB8412E84800EBC200B0
:103A6000D0F84C01181841F1000104EB4402C2EBFC
:103A70008413E24A02EBC30202F5A87203C204EB0C
:103A80004400C0EB8411DD4800EBC10090F8280031
:103A900007280AD004EB4400C0EB8411D74800EBA0
:103AA000C10090F8280008287DD1D5480068401E44
:103AB000A04278D004EB4400C0EB8411CF4800EB67
:103AC000C100D0F8B8010028F3D004EB4400C0EBEB
:103AD0008411CA4800EBC100D0F8B8010521B0FB41
:103AE000F1F104EB4400C0EB8412C44800EBC200C7
:103AF000D0F8B801014404EB4400C0EB8412BF4885
:103B000000EBC200D0F82401814213D204EB440040
:103B1000C0EB8411B94800EBC100D0F87401401C1F
:103B200004EB4401C1EB8412B44901EBC201C1F8BA
:103B300074011CE004EB4400C0EB8411AF4800EBBF
:103B4000C100D0F8740190B104EB4400C0EB8411C3
:103B5000AA4800EBC100D0F87401401E04EB4401F8
:103B6000C1EB8412A54901EBC201C1F8740104EB59
:103B70004400C0EB8411A14800EBC100D0F87401EF
:103B8000B0F5FA7F09D9012104EB4400C0EB84129F
:103B90009A4800EBC20080F8801104EB4400C0EBAF
:103BA0008411964800E0CCE000EBC100D0F8B801E9
:103BB0000A21B0FBF1F104EB4400C0EB84128F4802
:103BC00000EBC200D0F8B801014404EB4400C0EBA4
:103BD00084128A4800EBC200D0F82401814213D23B
:103BE00004EB4400C0EB8411844800EBC100D0F822
:103BF0007801401C04EB4401C1EB84127F4901EBC6
:103C0000C201C1F878011CE004EB4400C0EB841150
:103C10007A4800EBC100D0F8780190B104EB440081
:103C2000C0EB8411754800EBC100D0F87801401E4C
:103C300004EB4401C1EB8412704901EBC201C1F8ED
:103C4000780104EB4400C0EB84116C4800EBC10028
:103C5000D0F8780141F28831884209D9012104EB7A
:103C60004400C0EB8412654800EBC20080F880116C
:103C700004EB4400C0EB8411604800EBC100D0F8B5
:103C8000B8011421B0FBF1F104EB4400C0EB841245
:103C90005A4800EBC200D0F8B801014404EB4400DC
:103CA000C0EB8412554800EBC200D0F824018142D9
:103CB00013D204EB4400C0EB8411504800EBC10068
:103CC000D0F87C01401C04EB4401C1EB84124B4949
:103CD00001EBC201C1F87C011CE004EB4400C0EB25
:103CE0008411464800EBC100D0F87C0190B104EB90
:103CF0004400C0EB8411414800EBC100D0F87C01C6
:103D0000401E04EB4401C1EB84123C4901EBC201AB
:103D1000C1F87C0104EB4400C0EB8411374800EB90
:103D2000C100D0F87C014CF25031884209D9012100
:103D300004EB4400C0EB8412304800EBC20080F872
:103D40008011641C2D4808380078A0423FF777ADF9
:103D50002A48FFF782F82B48FFF77FF800BFFFF7EC
:103D6000F0B800213AE000222DE001EB4100C0EB69
:103D70008113224800EBC300001D02EB420300EB5D
:103D800083008078F0B101EB4100C0EB81131B4848
:103D900000EBC300001D02EB420300EB8300C0797F
:103DA00080B101EB4100C0EB8113144800EBC3006C
:103DB000001D02EB420300EB8300C079022801D012
:103DC00000207047521C01EB4100C0EB81130B48EF
:103DD00000EBC30040789042C7DC491C0748083814
:103DE00000788842BFDC0848007898B1074800781E
:103DF00080B10748007868B90020E2E7982B0020DE
:103E00008C200020802D0020A82200200C210020E2
:103E1000A92200200120D4E770B50121FE4830F02E
:103E2000C4FDFE480068401CFC490860FC4890F84E
:103E3000FA0001281DD1084600684FF47A71B0FBE2
:103E4000F1F201FB1200A0B90120F6490870F64812
:103E500000780A2808DB0E21F44811F074FA0E21CC
:103E6000F34811F070FA04E0EF480078401CEE4986
:103E700008702AF00AF9ED480838D0F8340500280F
:103E800008DDEA480838D0F83405401EE74908390B
:103E9000C1F83405E5480838D0F8D005002808DD19
:103EA000E2480838D0F8D005401EE0490839C1F88A
:103EB000D005DE48083890F8D803042835D1DD480D
:103EC0000068002817DDDB480068401ED9490860FB
:103ED0000020D9490870D748006830BBD34808385B
:103EE00090F8D803042820D10020D449086001208C
:103EF000D349086019E0D1480068401CCF490860E8
:103F00000846006842F21071884202DD0020CA496A
:103F10000870CA480068CB49884206DD0020C849BD
:103F2000086042F21070C34908604FF003034FF07D
:103F300001021146C4482DF023FFC3482DF091FF24
:103F400000BF0221C0482EF0C5F80028F9D0BE48B5
:103F50002DF0C8FF054648F6CC50684340F6FF7187
:103F6000B0FBF1F5B9480560B948007845F2F05169
:103F70004FF4FA6202FB1010A84207D20020B549A4
:103F80000870B5490860B549086015E0B248006896
:103F9000642804DAB0480068401CAF49086042F267
:103FA0001070854208D2AD480068642804DAAB4836
:103FB0000068401CA9490860A748006802280ADB7D
:103FC000A448007838B9FFF7CCFE20B10120A14900
:103FD0000870FEF74FFAA1480068022805DA9D48EC
:103FE000007820B1FFF7BDFE08B10AF0D8FB9C486D
:103FF000007850B19B48007838B9FFF7B2FE20B185
:10400000012098490870FEF735FA9648007848B1C3
:10401000FFF7A7FE30B10AF0C2FB002091490870FB
:104020008F49087090480078401C8F4908700846F6
:10403000007809287DDD002008700DF07FFFFEF775
:104040007AFF002409E004EB4401C1EB84127749B4
:1040500001EBC200FEF72EFE641C7448083800789D
:10406000A042F0DC8148006840B18148007840B946
:1040700001207F4908707F49087002E000207C49D8
:1040800008707D48006840B17C48007840B9012044
:104090007A4908707A49087002E000207749087070
:1040A0007848006840B17848007840B901207649E6
:1040B00008707649087002E000207349087074485F
:1040C000006840B17348007840B901207149087018
:1040D0007149087002E000206E4908706F4800784E
:1040E000401C6E49087008460078092803DD00204E
:1040F000087000F099FA6A480088401C68490880F6
:1041000008460088632895DD0020088000243FE0F1
:1041100004EB4400C0EB8411444800EBC10090F86C
:10412000C101012815DD04EB4400C0EB84113F48B8
:1041300000E0E5E000EBC10090F8C101401EC1B213
:1041400004EB4400C0EB8412384800EBC20080F856
:10415000C11104EB4400C0EB8411344800EBC100F2
:1041600090F8E30198B104EB4400C0EB84112F48B0
:1041700000EBC10090F8E301401EC1B204EB440023
:10418000C0EB8412294800EBC20080F8E311641CE4
:10419000264808380078A042BADC42480068012866
:1041A00008D14148006840F6C411884202D200207C
:1041B0003C4908603B48006840B93B48006842F20F
:1041C0002831884202D90120364908603748006802
:1041D000012806D134480068C82802D2002033499B
:1041E00008603248006838B92F480068B0F5C87FC9
:1041F00002D901202D4908602D48006840F0A50033
:104200002B4908602B48006800F10100294908602B
:104210000846006814284FE000080040B420002041
:104220006CA10020E5230020E4230020982B00202F
:10423000802D00208820002070220020D423002020
:10424000B802424200530700002201401C21002016
:10425000A82200200C210020902000209420002083
:104260000D2100200E210020A92000201C02414227
:10427000122100201121002020024142142100209F
:10428000132100203C02404216210020152100206D
:10429000280242421821002017210020AB200020D4
:1042A000AE200020BC024242602100208C824142AC
:1042B000B8200020BC20002001D90020086011484F
:1042C0000078002804DD0F480078401E0D49087072
:1042D0000D480088401C0C490880084600883B288F
:1042E0000EDD01200949087009480068401C04D00F
:1042F00007480068401C0649086000200249088001
:1043000070BD00000F210020B020002019210020E6
:10431000942300200021FE4A1160012806D10221C9
:10432000FC4A11600121FC4A116004E00021F94AB5
:104330001160F94A1160704700B587B00020F44958
:104340000860F4490860F4490860F4490860F449D9
:104350000870F4490870F4490860F44908604FF0A7
:104360000100F34908604FF00A00F24908604FF07D
:104370000000F1490860F1490860F14908704FF008
:1043800034008DF800004FF00D008DF801004FF063
:1043900000008DF802004FF001008DF80300684620
:1043A0002DF0C8FB08220B21E6482EF0F4F801A8F6
:1043B0002EF0ADF802208DF808008002019001A9CE
:1043C000E0482EF03FF84FF4165003900020ADF86F
:1043D0001000ADF81200ADF81400ADF8180004207C
:1043E000ADF8160003A9D84830F026FC0122602160
:1043F000D54830F091FD012240F22551D24830F0ED
:104400008BFD0121D04830F0BAFC0120FFF782FF7C
:1044100007B000BD70B56021CB4830F0D0FD30B1A1
:104420000821C94830F0A4FDC74830F0DAFC40F25A
:104430002551C54830F0C3FD00287CD0C24830F07B
:10444000D0FCC4B20020BC4908600120B849086013
:10445000B648006830B1012819D0022872D003286C
:104460006BD1A3E0022C11D1AF48006870B90220D3
:10447000B64908600020B6490860A9490870AA49F1
:104480000860B44908600120A8490860C6E002201D
:10449000AE490860B048AE4909684454032C1AD1AB
:1044A000002504E0AC48405DA54948556D1CA8486E
:1044B00000688542F6D30020A14948559549086017
:1044C00095490860012098490860954908700020C6
:1044D00096490860A2E09E480068401C9C4908601C
:1044E00008460068282803D900209049086095E014
:1044F0009A48784497490968405CA0421ED1974881
:1045000078440E380078A04203D101209149086018
:1045100017E090480068401C8E4908608F48784436
:104520002C380968405C60B900208A490860022084
:104530007E49086005E072E004E06BE000208549F8
:1045400008606BE00220814908608348804909685F
